{"abi":[{"type":"constructor","inputs":[{"name":"_usdc","type":"address","internalType":"contract IERC20"},{"name":"_treasury","type":"address","internalType":"address"},{"name":"_feeRecipient","type":"address","internalType":"address"}],"stateMutability":"nonpayable"},{"type":"function","name":"BP_SCALE","inputs":[],"outputs":[{"name":"","type":"uint256","internalType":"uint256"}],"stateMutability":"view"},{"type":"function","name":"FEE_BP","inputs":[],"outputs":[{"name":"","type":"uint256","internalType":"uint256"}],"stateMutability":"view"},{"type":"function","name":"MAX_SNAPSHOTS","inputs":[],"outputs":[{"name":"","type":"uint256","internalType":"uint256"}],"stateMutability":"view"},{"type":"function","name":"MAX_TOTAL_SUPPLY","inputs":[],"outputs":[{"name":"","type":"uint256","internalType":"uint256"}],"stateMutability":"view"},{"type":"function","name":"MIN_SNAPSHOT_INTERVAL","inputs":[],"outputs":[{"name":"","type":"uint256","internalType":"uint256"}],"stateMutability":"view"},{"type":"function","name":"SECONDS_PER_YEAR","inputs":[],"outputs":[{"name":"","type":"uint256","internalType":"uint256"}],"stateMutability":"view"},{"type":"function","name":"USDC","inputs":[],"outputs":[{"name":"","type":"address","internalType":"contract IERC20"}],"stateMutability":"view"},{"type":"function","name":"addTreasury","inputs":[{"name":"t","type":"address","internalType":"address"}],"outputs":[],"stateMutability":"nonpayable"},{"type":"function","name":"admin","inputs":[],"outputs":[{"name":"","type":"address","internalType":"address"}],"stateMutability":"view"},{"type":"function","name":"allowance","inputs":[{"name":"owner","type":"address","internalType":"address"},{"name":"spender","type":"address","internalType":"address"}],"outputs":[{"name":"","type":"uint256","internalType":"uint256"}],"stateMutability":"view"},{"type":"function","name":"approve","inputs":[{"name":"spender","type":"address","internalType":"address"},{"name":"value","type":"uint256","internalType":"uint256"}],"outputs":[{"name":"","type":"bool","internalType":"bool"}],"stateMutability":"nonpayable"},{"type":"function","name":"balanceOf","inputs":[{"name":"account","type":"address","internalType":"address"}],"outputs":[{"name":"","type":"uint256","internalType":"uint256"}],"stateMutability":"view"},{"type":"function","name":"calculateAPR","inputs":[{"name":"daysAgo","type":"uint256","internalType":"uint256"}],"outputs":[{"name":"apr","type":"uint256","internalType":"uint256"}],"stateMutability":"view"},{"type":"function","name":"calculateAPY","inputs":[{"name":"daysAgo","type":"uint256","internalType":"uint256"}],"outputs":[{"name":"apy","type":"uint256","internalType":"uint256"}],"stateMutability":"view"},{"type":"function","name":"decimals","inputs":[],"outputs":[{"name":"","type":"uint8","internalType":"uint8"}],"stateMutability":"view"},{"type":"function","name":"depositFees","inputs":[{"name":"amount","type":"uint256","internalType":"uint256"}],"outputs":[{"name":"","type":"bool","internalType":"bool"}],"stateMutability":"nonpayable"},{"type":"function","name":"exchangeRate","inputs":[],"outputs":[{"name":"rate","type":"uint256","internalType":"uint256"}],"stateMutability":"view"},{"type":"function","name":"feeRecipient","inputs":[],"outputs":[{"name":"","type":"address","internalType":"address"}],"stateMutability":"view"},{"type":"function","name":"getCurrentAPRs","inputs":[],"outputs":[{"name":"apr7d","type":"uint256","internalType":"uint256"},{"name":"apr30d","type":"uint256","internalType":"uint256"}],"stateMutability":"view"},{"type":"function","name":"getMostRecentSnapshot","inputs":[],"outputs":[{"name":"rate","type":"uint256","internalType":"uint256"},{"name":"timestamp","type":"uint256","internalType":"uint256"}],"stateMutability":"view"},{"type":"function","name":"getSnapshotCount","inputs":[],"outputs":[{"name":"count","type":"uint256","internalType":"uint256"}],"stateMutability":"view"},{"type":"function","name":"getSnapshotFromPast","inputs":[{"name":"snapshotsAgo","type":"uint256","internalType":"uint256"}],"outputs":[{"name":"rate","type":"uint256","internalType":"uint256"},{"name":"timestamp","type":"uint256","internalType":"uint256"}],"stateMutability":"view"},{"type":"function","name":"isTreasury","inputs":[{"name":"","type":"address","internalType":"address"}],"outputs":[{"name":"","type":"bool","internalType":"bool"}],"stateMutability":"view"},{"type":"function","name":"lastSnapshotTime","inputs":[],"outputs":[{"name":"","type":"uint256","internalType":"uint256"}],"stateMutability":"view"},{"type":"function","name":"mint","inputs":[{"name":"usdcAmount","type":"uint256","internalType":"uint256"}],"outputs":[{"name":"glusdMinted","type":"uint256","internalType":"uint256"}],"stateMutability":"nonpayable"},{"type":"function","name":"name","inputs":[],"outputs":[{"name":"","type":"string","internalType":"string"}],"stateMutability":"view"},{"type":"function","name":"pause","inputs":[],"outputs":[],"stateMutability":"nonpayable"},{"type":"function","name":"paused","inputs":[],"outputs":[{"name":"","type":"bool","internalType":"bool"}],"stateMutability":"view"},{"type":"function","name":"pauser","inputs":[],"outputs":[{"name":"","type":"address","internalType":"address"}],"stateMutability":"view"},{"type":"function","name":"recentSnapshots","inputs":[{"name":"","type":"uint256","internalType":"uint256"}],"outputs":[{"name":"rate","type":"uint256","internalType":"uint256"},{"name":"timestamp","type":"uint256","internalType":"uint256"}],"stateMutability":"view"},{"type":"function","name":"redeem","inputs":[{"name":"glusdAmount","type":"uint256","internalType":"uint256"}],"outputs":[{"name":"usdcOut","type":"uint256","internalType":"uint256"}],"stateMutability":"nonpayable"},{"type":"function","name":"remainingMintableSupply","inputs":[],"outputs":[{"name":"remaining","type":"uint256","internalType":"uint256"}],"stateMutability":"view"},{"type":"function","name":"removeTreasury","inputs":[{"name":"t","type":"address","internalType":"address"}],"outputs":[],"stateMutability":"nonpayable"},{"type":"function","name":"rescueERC20","inputs":[{"name":"token","type":"address","internalType":"contract IERC20"},{"name":"to","type":"address","internalType":"address"},{"name":"amount","type":"uint256","internalType":"uint256"}],"outputs":[],"stateMutability":"nonpayable"},{"type":"function","name":"setAdmin","inputs":[{"name":"newAdmin","type":"address","internalType":"address"}],"outputs":[],"stateMutability":"nonpayable"},{"type":"function","name":"setFeeRecipient","inputs":[{"name":"newRecipient","type":"address","internalType":"address"}],"outputs":[],"stateMutability":"nonpayable"},{"type":"function","name":"setPauser","inputs":[{"name":"newPauser","type":"address","internalType":"address"}],"outputs":[],"stateMutability":"nonpayable"},{"type":"function","name":"snapshotIndex","inputs":[],"outputs":[{"name":"","type":"uint256","internalType":"uint256"}],"stateMutability":"view"},{"type":"function","name":"symbol","inputs":[],"outputs":[{"name":"","type":"string","internalType":"string"}],"stateMutability":"view"},{"type":"function","name":"takeSnapshot","inputs":[],"outputs":[],"stateMutability":"nonpayable"},{"type":"function","name":"totalSnapshotCount","inputs":[],"outputs":[{"name":"","type":"uint256","internalType":"uint256"}],"stateMutability":"view"},{"type":"function","name":"totalSupply","inputs":[],"outputs":[{"name":"","type":"uint256","internalType":"uint256"}],"stateMutability":"view"},{"type":"function","name":"transfer","inputs":[{"name":"to","type":"address","internalType":"address"},{"name":"value","type":"uint256","internalType":"uint256"}],"outputs":[{"name":"","type":"bool","internalType":"bool"}],"stateMutability":"nonpayable"},{"type":"function","name":"transferFrom","inputs":[{"name":"from","type":"address","internalType":"address"},{"name":"to","type":"address","internalType":"address"},{"name":"value","type":"uint256","internalType":"uint256"}],"outputs":[{"name":"","type":"bool","internalType":"bool"}],"stateMutability":"nonpayable"},{"type":"function","name":"unpause","inputs":[],"outputs":[],"stateMutability":"nonpayable"},{"type":"function","name":"vaultStatus","inputs":[],"outputs":[{"name":"usdcBalance","type":"uint256","internalType":"uint256"},{"name":"supply","type":"uint256","internalType":"uint256"}],"stateMutability":"view"},{"type":"event","name":"AdminUpdated","inputs":[{"name":"oldAdmin","type":"address","indexed":true,"internalType":"address"},{"name":"newAdmin","type":"address","indexed":true,"internalType":"address"}],"anonymous":false},{"type":"event","name":"Approval","inputs":[{"name":"owner","type":"address","indexed":true,"internalType":"address"},{"name":"spender","type":"address","indexed":true,"internalType":"address"},{"name":"value","type":"uint256","indexed":false,"internalType":"uint256"}],"anonymous":false},{"type":"event","name":"FeeRecipientUpdated","inputs":[{"name":"oldRecipient","type":"address","indexed":true,"internalType":"address"},{"name":"newRecipient","type":"address","indexed":true,"internalType":"address"}],"anonymous":false},{"type":"event","name":"FeesDeposited","inputs":[{"name":"depositor","type":"address","indexed":true,"internalType":"address"},{"name":"amount","type":"uint256","indexed":false,"internalType":"uint256"}],"anonymous":false},{"type":"event","name":"Mint","inputs":[{"name":"user","type":"address","indexed":true,"internalType":"address"},{"name":"usdcDeposited","type":"uint256","indexed":false,"internalType":"uint256"},{"name":"glusdMinted","type":"uint256","indexed":false,"internalType":"uint256"},{"name":"fee","type":"uint256","indexed":false,"internalType":"uint256"}],"anonymous":false},{"type":"event","name":"Paused","inputs":[{"name":"account","type":"address","indexed":false,"internalType":"address"}],"anonymous":false},{"type":"event","name":"PauserUpdated","inputs":[{"name":"oldPauser","type":"address","indexed":true,"internalType":"address"},{"name":"newPauser","type":"address","indexed":true,"internalType":"address"}],"anonymous":false},{"type":"event","name":"RateSnapshotTaken","inputs":[{"name":"rate","type":"uint256","indexed":false,"internalType":"uint256"},{"name":"timestamp","type":"uint256","indexed":false,"internalType":"uint256"}],"anonymous":false},{"type":"event","name":"Redeem","inputs":[{"name":"user","type":"address","indexed":true,"internalType":"address"},{"name":"glusdBurned","type":"uint256","indexed":false,"internalType":"uint256"},{"name":"usdcReturned","type":"uint256","indexed":false,"internalType":"uint256"},{"name":"fee","type":"uint256","indexed":false,"internalType":"uint256"}],"anonymous":false},{"type":"event","name":"Transfer","inputs":[{"name":"from","type":"address","indexed":true,"internalType":"address"},{"name":"to","type":"address","indexed":true,"internalType":"address"},{"name":"value","type":"uint256","indexed":false,"internalType":"uint256"}],"anonymous":false},{"type":"event","name":"TreasuryUpdated","inputs":[{"name":"oldTreasury","type":"address","indexed":true,"internalType":"address"},{"name":"newTreasury","type":"address","indexed":true,"internalType":"address"}],"anonymous":false},{"type":"event","name":"Unpaused","inputs":[{"name":"account","type":"address","indexed":false,"internalType":"address"}],"anonymous":false},{"type":"error","name":"ERC20InsufficientAllowance","inputs":[{"name":"spender","type":"address","internalType":"address"},{"name":"allowance","type":"uint256","internalType":"uint256"},{"name":"needed","type":"uint256","internalType":"uint256"}]},{"type":"error","name":"ERC20InsufficientBalance","inputs":[{"name":"sender","type":"address","internalType":"address"},{"name":"balance","type":"uint256","internalType":"uint256"},{"name":"needed","type":"uint256","internalType":"uint256"}]},{"type":"error","name":"ERC20InvalidApprover","inputs":[{"name":"approver","type":"address","internalType":"address"}]},{"type":"error","name":"ERC20InvalidReceiver","inputs":[{"name":"receiver","type":"address","internalType":"address"}]},{"type":"error","name":"ERC20InvalidSender","inputs":[{"name":"sender","type":"address","internalType":"address"}]},{"type":"error","name":"ERC20InvalidSpender","inputs":[{"name":"spender","type":"address","internalType":"address"}]},{"type":"error","name":"EnforcedPause","inputs":[]},{"type":"error","name":"ExpectedPause","inputs":[]},{"type":"error","name":"ReentrancyGuardReentrantCall","inputs":[]}],"bytecode":{"object":"0x60c060405234801561000f575f5ffd5b506040516154bc3803806154bc8339818101604052810190610031919061054e565b6040518060400160405280600c81526020017f47616c616b73696f2055534400000000000000000000000000000000000000008152506040518060400160405280600581526020017f474c55534400000000000000000000000000000000000000000000000000000081525081600390816100ac91906107db565b5080600490816100bc91906107db565b50505060016100dd6100d261048360201b60201c565b6104ac60201b60201c565b5f01819055505f73ffffffffffffffffffffffffffffffffffffffff168373ffffffffffffffffffffffffffffffffffffffff1603610151576040517f08c379a000000000000000000000000000000000000000000000000000000000815260040161014890610904565b60405180910390fd5b5f73ffffffffffffffffffffffffffffffffffffffff168273ffffffffffffffffffffffffffffffffffffffff16036101bf576040517f08c379a00000000000000000000000000000000000000000000000000000000081526004016101b69061096c565b60405180910390fd5b5f73ffffffffffffffffffffffffffffffffffffffff168173ffffffffffffffffffffffffffffffffffffffff160361022d576040517f08c379a0000000000000000000000000000000000000000000000000000000008152600401610224906109fa565b60405180910390fd5b8273ffffffffffffffffffffffffffffffffffffffff1660808173ffffffffffffffffffffffffffffffffffffffff1681525050600660ff1660a08160ff168152505033600560016101000a81548173ffffffffffffffffffffffffffffffffffffffff021916908373ffffffffffffffffffffffffffffffffffffffff160217905550600160085f8473ffffffffffffffffffffffffffffffffffffffff1673ffffffffffffffffffffffffffffffffffffffff1681526020019081526020015f205f6101000a81548160ff0219169083151502179055503360065f6101000a81548173ffffffffffffffffffffffffffffffffffffffff021916908373ffffffffffffffffffffffffffffffffffffffff1602179055508060075f6101000a81548173ffffffffffffffffffffffffffffffffffffffff021916908373ffffffffffffffffffffffffffffffffffffffff1602179055506040518060400160405280620f424081526020014281525060095f61087081106103b3576103b2610a18565b5b600202015f820151815f0155602082015181600101559050505f6110e98190555060016110ea81905550426110eb819055508173ffffffffffffffffffffffffffffffffffffffff165f73ffffffffffffffffffffffffffffffffffffffff167f4ab5be82436d353e61ca18726e984e561f5c1cc7c6d38b29d2553c790434705a60405160405180910390a37fe6f2c82c8be6ae89f9e7ddae85f285421f42458c3d8498b4d88d318352fca733620f424042604051610473929190610a8d565b60405180910390a1505050610ab4565b5f7f9b779b17422d0df92223018b32b4d1fa46e071723d6817e2486d003becc55f005f1b905090565b5f819050919050565b5f5ffd5b5f73ffffffffffffffffffffffffffffffffffffffff82169050919050565b5f6104e2826104b9565b9050919050565b5f6104f3826104d8565b9050919050565b610503816104e9565b811461050d575f5ffd5b50565b5f8151905061051e816104fa565b92915050565b61052d816104d8565b8114610537575f5ffd5b50565b5f8151905061054881610524565b92915050565b5f5f5f60608486031215610565576105646104b5565b5b5f61057286828701610510565b93505060206105838682870161053a565b92505060406105948682870161053a565b9150509250925092565b5f81519050919050565b7f4e487b71000000000000000000000000000000000000000000000000000000005f52604160045260245ffd5b7f4e487b71000000000000000000000000000000000000000000000000000000005f52602260045260245ffd5b5f600282049050600182168061061957607f821691505b60208210810361062c5761062b6105d5565b5b50919050565b5f819050815f5260205f209050919050565b5f6020601f8301049050919050565b5f82821b905092915050565b5f6008830261068e7fffffffffffffffffffffffffffffffffffffffffffffffffffffffffffffffff82610653565b6106988683610653565b95508019841693508086168417925050509392505050565b5f819050919050565b5f819050919050565b5f6106dc6106d76106d2846106b0565b6106b9565b6106b0565b9050919050565b5f819050919050565b6106f5836106c2565b610709610701826106e3565b84845461065f565b825550505050565b5f5f905090565b610720610711565b61072b8184846106ec565b505050565b5b8181101561074e576107435f82610718565b600181019050610731565b5050565b601f8211156107935761076481610632565b61076d84610644565b8101602085101561077c578190505b61079061078885610644565b830182610730565b50505b505050565b5f82821c905092915050565b5f6107b35f1984600802610798565b1980831691505092915050565b5f6107cb83836107a4565b9150826002028217905092915050565b6107e48261059e565b67ffffffffffffffff8111156107fd576107fc6105a8565b5b6108078254610602565b610812828285610752565b5f60209050601f831160018114610843575f8415610831578287015190505b61083b85826107c0565b8655506108a2565b601f19841661085186610632565b5f5b8281101561087857848901518255600182019150602085019450602081019050610853565b868310156108955784890151610891601f8916826107a4565b8355505b6001600288020188555050505b505050505050565b5f82825260208201905092915050565b7f474c5553443a207a65726f2055534443206164647265737300000000000000005f82015250565b5f6108ee6018836108aa565b91506108f9826108ba565b602082019050919050565b5f6020820190508181035f83015261091b816108e2565b9050919050565b7f474c5553443a207a65726f2074726561737572792061646472657373000000005f82015250565b5f610956601c836108aa565b915061096182610922565b602082019050919050565b5f6020820190508181035f8301526109838161094a565b9050919050565b7f474c5553443a207a65726f2066656520726563697069656e74206164647265735f8201527f7300000000000000000000000000000000000000000000000000000000000000602082015250565b5f6109e46021836108aa565b91506109ef8261098a565b604082019050919050565b5f6020820190508181035f830152610a11816109d8565b9050919050565b7f4e487b71000000000000000000000000000000000000000000000000000000005f52603260045260245ffd5b5f819050919050565b5f610a68610a63610a5e84610a45565b6106b9565b6106b0565b9050919050565b610a7881610a4e565b82525050565b610a87816106b0565b82525050565b5f604082019050610aa05f830185610a6f565b610aad6020830184610a7e565b9392505050565b60805160a0516149a8610b145f395f610f5901525f81816109b301528181610fe401528181611482015281816117080152818161180901528181611b300152818161250c015281816125f4015281816126f30152612c4401526149a85ff3fe608060405234801561000f575f5ffd5b5060043610610288575f3560e01c806395d89b411161015a578063bcbcf148116100cc578063dd62ed3e11610085578063dd62ed3e146107ae578063e51a3b01146107de578063e6a69ab81461080f578063e74b981b1461082d578063ebdac09014610849578063f851a4401461087957610288565b8063bcbcf148146106d8578063be74baf2146106f6578063c8cb383414610714578063d1a02a8614610730578063d8b4cf4e14610760578063db006a751461077e57610288565b8063a9059cbb1161011e578063a9059cbb1461062a578063ad381c711461065a578063af83176814610678578063b2118a8d14610696578063b35ee931146106b2578063b3d3d37e146106ce57610288565b806395d89b4114610581578063984b4a3d1461059f5780639bbaca57146105be5780639fd0506d146105dc578063a0712d68146105fa57610288565b806333039d3d116101fe5780635c975abb116101b75780635c975abb146104d0578063704b6c02146104ee57806370a082311461050a578063841283ae1461053a5780638456cb591461055957806389a302711461056357610288565b806333039d3d1461041e578063349f0b901461043c5780633ba0b9a91461045a5780633f4ba83a146104785780634690484014610482578063516f0a1b146104a057610288565b806323b872dd1161025057806323b872dd1461034757806324a8166e146103775780632b70fc58146103965780632d88af4a146103c6578063313ce567146103e257806331ad24f81461040057610288565b806306fdde031461028c578063095ea7b3146102aa5780631617a218146102da57806318160ddd1461030b578063234feaf214610329575b5f5ffd5b610294610897565b6040516102a191906137ac565b60405180910390f35b6102c460048036038101906102bf919061385d565b610927565b6040516102d191906138b5565b60405180910390f35b6102f460048036038101906102ef91906138ce565b610949565b604051610302929190613908565b60405180910390f35b610313610971565b604051610320919061392f565b60405180910390f35b61033161097a565b60405161033e919061392f565b60405180910390f35b610361600480360381019061035c9190613948565b610981565b60405161036e91906138b5565b60405180910390f35b61037f6109af565b60405161038d929190613908565b60405180910390f35b6103b060048036038101906103ab91906138ce565b610a59565b6040516103bd919061392f565b60405180910390f35b6103e060048036038101906103db9190613998565b610d95565b005b6103ea610f56565b6040516103f791906139de565b60405180910390f35b610408610f7d565b604051610415919061392f565b60405180910390f35b610426610f83565b604051610433919061392f565b60405180910390f35b610444610f8b565b604051610451919061392f565b60405180910390f35b610462610fc2565b60405161046f919061392f565b60405180910390f35b61048061109e565b005b61048a611137565b6040516104979190613a06565b60405180910390f35b6104ba60048036038101906104b59190613998565b61115c565b6040516104c791906138b5565b60405180910390f35b6104d8611179565b6040516104e591906138b5565b60405180910390f35b61050860048036038101906105039190613998565b61118e565b005b610524600480360381019061051f9190613998565b611351565b604051610531919061392f565b60405180910390f35b610542611396565b604051610550929190613908565b60405180910390f35b6105616113e7565b005b61056b611480565b6040516105789190613a7a565b60405180910390f35b6105896114a4565b60405161059691906137ac565b60405180910390f35b6105a7611534565b6040516105b5929190613908565b60405180910390f35b6105c661165a565b6040516105d3919061392f565b60405180910390f35b6105e4611661565b6040516105f19190613a06565b60405180910390f35b610614600480360381019061060f91906138ce565b611686565b604051610621919061392f565b60405180910390f35b610644600480360381019061063f919061385d565b611a72565b60405161065191906138b5565b60405180910390f35b610662611a94565b60405161066f919061392f565b60405180910390f35b610680611a99565b60405161068d919061392f565b60405180910390f35b6106b060048036038101906106ab9190613ace565b611a9e565b005b6106cc60048036038101906106c79190613998565b611cee565b005b6106d6611eb8565b005b6106e0611ec2565b6040516106ed919061392f565b60405180910390f35b6106fe611ee1565b60405161070b919061392f565b60405180910390f35b61072e60048036038101906107299190613998565b611ee8565b005b61074a600480360381019061074591906138ce565b612098565b604051610757919061392f565b60405180910390f35b610768612387565b604051610775919061392f565b60405180910390f35b610798600480360381019061079391906138ce565b61238d565b6040516107a5919061392f565b60405180910390f35b6107c860048036038101906107c39190613b1e565b612833565b6040516107d5919061392f565b60405180910390f35b6107f860048036038101906107f391906138ce565b6128b5565b604051610806929190613908565b60405180910390f35b6108176129a4565b604051610824919061392f565b60405180910390f35b61084760048036038101906108429190613998565b6129ac565b005b610863600480360381019061085e91906138ce565b612b6d565b60405161087091906138b5565b60405180910390f35b610881612d89565b60405161088e9190613a06565b60405180910390f35b6060600380546108a690613b89565b80601f01602080910402602001604051908101604052809291908181526020018280546108d290613b89565b801561091d5780601f106108f45761010080835404028352916020019161091d565b820191905f5260205f20905b81548152906001019060200180831161090057829003601f168201915b5050505050905090565b5f5f610931612daf565b905061093e818585612db6565b600191505092915050565b6009816108708110610959575f80fd5b600202015f91509050805f0154908060010154905082565b5f600254905090565b6110e95481565b5f5f61098b612daf565b9050610998858285612dc8565b6109a3858585612e5b565b60019150509392505050565b5f5f7f000000000000000000000000000000000000000000000000000000000000000073ffffffffffffffffffffffffffffffffffffffff166370a08231306040518263ffffffff1660e01b8152600401610a0a9190613a06565b602060405180830381865afa158015610a25573d5f5f3e3d5ffd5b505050506040513d601f19601f82011682018060405250810190610a499190613bcd565b9150610a53610971565b90509091565b5f5f8211610a9c576040517f08c379a0000000000000000000000000000000000000000000000000000000008152600401610a9390613c42565b60405180910390fd5b605a821115610ae0576040517f08c379a0000000000000000000000000000000000000000000000000000000008152600401610ad790613caa565b60405180910390fd5b5f6110ea5411610b25576040517f08c379a0000000000000000000000000000000000000000000000000000000008152600401610b1c90613d12565b60405180910390fd5b5f610b2e610fc2565b90505f6201518084610b409190613d5d565b42610b4b9190613d9e565b90505f5f5f5f90505f6108706110ea5411610b69576110ea54610b6d565b6108705b90505f5f90505b81811015610c28575f6110e9548211610b9d57816110e954610b969190613d9e565b9050610bbc565b6110e95482610bac9190613d9e565b610870610bb99190613d9e565b90505b5f6009826108708110610bd257610bd1613dd1565b5b600202016040518060400160405290815f8201548152602001600182015481525050905087816020015111610c1957805f0151965080602001519550600194505050610c28565b50508080600101915050610b74565b5081610cae575f6108706110ea541115610c605761087060016110e954610c4f9190613dfe565b610c599190613e5e565b9050610c64565b5f90505b5f6009826108708110610c7a57610c79613dd1565b5b600202016040518060400160405290815f82015481526020016001820154815250509050805f015195508060200151945050505b5f8342610cbb9190613d9e565b90505f811480610cca57505f85145b80610cd55750848711155b15610ce9575f975050505050505050610d90565b5f85670de0b6b3a764000089610cff9190613d5d565b610d099190613e8e565b90505f826301e13380610d1c9190613e8e565b9050670de0b6b3a76400008211610d3e575f9950505050505050505050610d90565b5f670de0b6b3a764000083610d539190613d9e565b9050670de0b6b3a76400006305f5e1008383610d6f9190613d5d565b610d799190613d5d565b610d839190613e8e565b9a50505050505050505050505b919050565b600560019054906101000a900473ffffffffffffffffffffffffffffffffffffffff1673ffffffffffffffffffffffffffffffffffffffff163373ffffffffffffffffffffffffffffffffffffffff1614610e25576040517f08c379a0000000000000000000000000000000000000000000000000000000008152600401610e1c90613f08565b60405180910390fd5b5f73ffffffffffffffffffffffffffffffffffffffff168173ffffffffffffffffffffffffffffffffffffffff1603610e93576040517f08c379a0000000000000000000000000000000000000000000000000000000008152600401610e8a90613f70565b60405180910390fd5b5f60065f9054906101000a900473ffffffffffffffffffffffffffffffffffffffff1690508160065f6101000a81548173ffffffffffffffffffffffffffffffffffffffff021916908373ffffffffffffffffffffffffffffffffffffffff1602179055508173ffffffffffffffffffffffffffffffffffffffff168173ffffffffffffffffffffffffffffffffffffffff167f1ff153f4b082245afbf3211a8d2d207da4c5df490e965f9a9ad141b0cd001dda60405160405180910390a35050565b5f7f0000000000000000000000000000000000000000000000000000000000000000905090565b61087081565b633b9aca0081565b5f5f610f95610971565b9050633b9aca008110610fab575f915050610fbf565b80633b9aca00610fbb9190613d9e565b9150505b90565b5f5f610fcc610971565b90505f8103610fe157620f424091505061109b565b5f7f000000000000000000000000000000000000000000000000000000000000000073ffffffffffffffffffffffffffffffffffffffff166370a08231306040518263ffffffff1660e01b815260040161103b9190613a06565b602060405180830381865afa158015611056573d5f5f3e3d5ffd5b505050506040513d601f19601f8201168201806040525081019061107a9190613bcd565b905081620f42408261108c9190613d5d565b6110969190613e8e565b925050505b90565b60065f9054906101000a900473ffffffffffffffffffffffffffffffffffffffff1673ffffffffffffffffffffffffffffffffffffffff163373ffffffffffffffffffffffffffffffffffffffff161461112d576040517f08c379a000000000000000000000000000000000000000000000000000000000815260040161112490613fd8565b60405180910390fd5b611135612f4b565b565b60075f9054906101000a900473ffffffffffffffffffffffffffffffffffffffff1681565b6008602052805f5260405f205f915054906101000a900460ff1681565b5f60055f9054906101000a900460ff16905090565b600560019054906101000a900473ffffffffffffffffffffffffffffffffffffffff1673ffffffffffffffffffffffffffffffffffffffff163373ffffffffffffffffffffffffffffffffffffffff161461121e576040517f08c379a000000000000000000000000000000000000000000000000000000000815260040161121590613f08565b60405180910390fd5b5f73ffffffffffffffffffffffffffffffffffffffff168173ffffffffffffffffffffffffffffffffffffffff160361128c576040517f08c379a000000000000000000000000000000000000000000000000000000000815260040161128390614040565b60405180910390fd5b5f600560019054906101000a900473ffffffffffffffffffffffffffffffffffffffff16905081600560016101000a81548173ffffffffffffffffffffffffffffffffffffffff021916908373ffffffffffffffffffffffffffffffffffffffff1602179055508173ffffffffffffffffffffffffffffffffffffffff168173ffffffffffffffffffffffffffffffffffffffff167f101b8081ff3b56bbf45deb824d86a3b0fd38b7e3dd42421105cf8abe9106db0b60405160405180910390a35050565b5f5f5f8373ffffffffffffffffffffffffffffffffffffffff1673ffffffffffffffffffffffffffffffffffffffff1681526020019081526020015f20549050919050565b5f5f5f60096110e95461087081106113b1576113b0613dd1565b5b600202016040518060400160405290815f82015481526020016001820154815250509050805f0151816020015192509250509091565b60065f9054906101000a900473ffffffffffffffffffffffffffffffffffffffff1673ffffffffffffffffffffffffffffffffffffffff163373ffffffffffffffffffffffffffffffffffffffff1614611476576040517f08c379a000000000000000000000000000000000000000000000000000000000815260040161146d90613fd8565b60405180910390fd5b61147e612fac565b565b7f000000000000000000000000000000000000000000000000000000000000000081565b6060600480546114b390613b89565b80601f01602080910402602001604051908101604052809291908181526020018280546114df90613b89565b801561152a5780601f106115015761010080835404028352916020019161152a565b820191905f5260205f20905b81548152906001019060200180831161150d57829003601f168201915b5050505050905090565b5f5f5f6110ea540361154b575f5f91509150611656565b3073ffffffffffffffffffffffffffffffffffffffff1663d1a02a8660076040518263ffffffff1660e01b81526004016115859190614097565b602060405180830381865afa9250505080156115bf57506040513d601f19601f820116820180604052508101906115bc9190613bcd565b60015b6115cb575f91506115d0565b809250505b3073ffffffffffffffffffffffffffffffffffffffff1663d1a02a86601e6040518263ffffffff1660e01b815260040161160a91906140e9565b602060405180830381865afa92505050801561164457506040513d601f19601f820116820180604052508101906116419190613bcd565b60015b611650575f9050611655565b809150505b5b9091565b6110ea5481565b60065f9054906101000a900473ffffffffffffffffffffffffffffffffffffffff1681565b5f61168f61300e565b611697613030565b5f82116116d9576040517f08c379a00000000000000000000000000000000000000000000000000000000081526004016116d09061414c565b60405180910390fd5b5f6127106032846116ea9190613d5d565b6116f49190613e8e565b90505f81846117039190613d9e565b90505f7f000000000000000000000000000000000000000000000000000000000000000073ffffffffffffffffffffffffffffffffffffffff166323b872dd3360075f9054906101000a900473ffffffffffffffffffffffffffffffffffffffff16866040518463ffffffff1660e01b81526004016117849392919061416a565b6020604051808303815f875af11580156117a0573d5f5f3e3d5ffd5b505050506040513d601f19601f820116820180604052508101906117c491906141c9565b905080611806576040517f08c379a00000000000000000000000000000000000000000000000000000000081526004016117fd9061423e565b60405180910390fd5b5f7f000000000000000000000000000000000000000000000000000000000000000073ffffffffffffffffffffffffffffffffffffffff166323b872dd3330866040518463ffffffff1660e01b81526004016118649392919061416a565b6020604051808303815f875af1158015611880573d5f5f3e3d5ffd5b505050506040513d601f19601f820116820180604052508101906118a491906141c9565b9050806118e6576040517f08c379a00000000000000000000000000000000000000000000000000000000081526004016118dd906142a6565b60405180910390fd5b5f6118ef610971565b90505f81036119005783955061196b565b5f611909610fc2565b90505f811161194d576040517f08c379a00000000000000000000000000000000000000000000000000000000081526004016119449061430e565b60405180910390fd5b80620f42408661195d9190613d5d565b6119679190613e8e565b9650505b5f86116119ad576040517f08c379a00000000000000000000000000000000000000000000000000000000081526004016119a490614376565b60405180910390fd5b5f86826119ba9190613dfe565b9050633b9aca00811115611a03576040517f08c379a00000000000000000000000000000000000000000000000000000000081526004016119fa906143de565b60405180910390fd5b611a0d3388613071565b3373ffffffffffffffffffffffffffffffffffffffff167fb4c03061fb5b7fed76389d5af8f2e0ddb09f8c70d1333abbb62582835e10accb898989604051611a57939291906143fc565b60405180910390a2505050505050611a6d6130f0565b919050565b5f5f611a7c612daf565b9050611a89818585612e5b565b600191505092915050565b601e81565b603281565b600560019054906101000a900473ffffffffffffffffffffffffffffffffffffffff1673ffffffffffffffffffffffffffffffffffffffff163373ffffffffffffffffffffffffffffffffffffffff1614611b2e576040517f08c379a0000000000000000000000000000000000000000000000000000000008152600401611b2590613f08565b60405180910390fd5b7f000000000000000000000000000000000000000000000000000000000000000073ffffffffffffffffffffffffffffffffffffffff168373ffffffffffffffffffffffffffffffffffffffff1603611bbc576040517f08c379a0000000000000000000000000000000000000000000000000000000008152600401611bb39061447b565b60405180910390fd5b5f73ffffffffffffffffffffffffffffffffffffffff168273ffffffffffffffffffffffffffffffffffffffff1603611c2a576040517f08c379a0000000000000000000000000000000000000000000000000000000008152600401611c21906144e3565b60405180910390fd5b5f8373ffffffffffffffffffffffffffffffffffffffff1663a9059cbb84846040518363ffffffff1660e01b8152600401611c66929190614501565b6020604051808303815f875af1158015611c82573d5f5f3e3d5ffd5b505050506040513d601f19601f82011682018060405250810190611ca691906141c9565b905080611ce8576040517f08c379a0000000000000000000000000000000000000000000000000000000008152600401611cdf90614572565b60405180910390fd5b50505050565b600560019054906101000a900473ffffffffffffffffffffffffffffffffffffffff1673ffffffffffffffffffffffffffffffffffffffff163373ffffffffffffffffffffffffffffffffffffffff1614611d7e576040517f08c379a0000000000000000000000000000000000000000000000000000000008152600401611d7590613f08565b60405180910390fd5b60085f8273ffffffffffffffffffffffffffffffffffffffff1673ffffffffffffffffffffffffffffffffffffffff1681526020019081526020015f205f9054906101000a900460ff16611e07576040517f08c379a0000000000000000000000000000000000000000000000000000000008152600401611dfe906145da565b60405180910390fd5b5f60085f8373ffffffffffffffffffffffffffffffffffffffff1673ffffffffffffffffffffffffffffffffffffffff1681526020019081526020015f205f6101000a81548160ff0219169083151502179055505f73ffffffffffffffffffffffffffffffffffffffff168173ffffffffffffffffffffffffffffffffffffffff167f4ab5be82436d353e61ca18726e984e561f5c1cc7c6d38b29d2553c790434705a60405160405180910390a350565b611ec061310a565b565b5f6108706110ea5411611ed8576110ea54611edc565b6108705b905090565b6110eb5481565b600560019054906101000a900473ffffffffffffffffffffffffffffffffffffffff1673ffffffffffffffffffffffffffffffffffffffff163373ffffffffffffffffffffffffffffffffffffffff1614611f78576040517f08c379a0000000000000000000000000000000000000000000000000000000008152600401611f6f90613f08565b60405180910390fd5b5f73ffffffffffffffffffffffffffffffffffffffff168173ffffffffffffffffffffffffffffffffffffffff1603611fe6576040517f08c379a0000000000000000000000000000000000000000000000000000000008152600401611fdd906144e3565b60405180910390fd5b600160085f8373ffffffffffffffffffffffffffffffffffffffff1673ffffffffffffffffffffffffffffffffffffffff1681526020019081526020015f205f6101000a81548160ff0219169083151502179055508073ffffffffffffffffffffffffffffffffffffffff165f73ffffffffffffffffffffffffffffffffffffffff167f4ab5be82436d353e61ca18726e984e561f5c1cc7c6d38b29d2553c790434705a60405160405180910390a350565b5f5f82116120db576040517f08c379a00000000000000000000000000000000000000000000000000000000081526004016120d290613c42565b60405180910390fd5b605a82111561211f576040517f08c379a000000000000000000000000000000000000000000000000000000000815260040161211690613caa565b60405180910390fd5b5f6110ea5411612164576040517f08c379a000000000000000000000000000000000000000000000000000000000815260040161215b90613d12565b60405180910390fd5b5f61216d610fc2565b90505f620151808461217f9190613d5d565b4261218a9190613d9e565b90505f5f5f5f90505f6108706110ea54116121a8576110ea546121ac565b6108705b90505f5f90505b81811015612267575f6110e95482116121dc57816110e9546121d59190613d9e565b90506121fb565b6110e954826121eb9190613d9e565b6108706121f89190613d9e565b90505b5f600982610870811061221157612210613dd1565b5b600202016040518060400160405290815f820154815260200160018201548152505090508781602001511161225857805f0151965080602001519550600194505050612267565b505080806001019150506121b3565b50816122ed575f6108706110ea54111561229f5761087060016110e95461228e9190613dfe565b6122989190613e5e565b90506122a3565b5f90505b5f60098261087081106122b9576122b8613dd1565b5b600202016040518060400160405290815f82015481526020016001820154815250509050805f015195508060200151945050505b5f83426122fa9190613d9e565b90505f81148061230957505f85145b1561231d575f975050505050505050612382565b848711612333575f975050505050505050612382565b5f85886123409190613d9e565b9050818661234e9190613d5d565b6305f5e1006301e13380836123639190613d5d565b61236d9190613d5d565b6123779190613e8e565b985050505050505050505b919050565b61271081565b5f61239661300e565b61239e613030565b5f82116123e0576040517f08c379a00000000000000000000000000000000000000000000000000000000081526004016123d79061414c565b60405180910390fd5b5f6123e9610971565b11612429576040517f08c379a000000000000000000000000000000000000000000000000000000000815260040161242090614642565b60405180910390fd5b8161243333611351565b1015612474576040517f08c379a000000000000000000000000000000000000000000000000000000000815260040161246b906146aa565b60405180910390fd5b5f61247d610fc2565b90505f620f424082856124909190613d5d565b61249a9190613e8e565b90505f81116124de576040517f08c379a00000000000000000000000000000000000000000000000000000000081526004016124d590614712565b60405180910390fd5b5f6127106032836124ef9190613d5d565b6124f99190613e8e565b905080826125079190613d9e565b93505f7f000000000000000000000000000000000000000000000000000000000000000073ffffffffffffffffffffffffffffffffffffffff166370a08231306040518263ffffffff1660e01b81526004016125639190613a06565b602060405180830381865afa15801561257e573d5f5f3e3d5ffd5b505050506040513d601f19601f820116820180604052508101906125a29190613bcd565b9050808311156125e7576040517f08c379a00000000000000000000000000000000000000000000000000000000081526004016125de906147a0565b60405180910390fd5b6125f13387613206565b5f7f000000000000000000000000000000000000000000000000000000000000000073ffffffffffffffffffffffffffffffffffffffff1663a9059cbb60075f9054906101000a900473ffffffffffffffffffffffffffffffffffffffff16856040518363ffffffff1660e01b815260040161266e929190614501565b6020604051808303815f875af115801561268a573d5f5f3e3d5ffd5b505050506040513d601f19601f820116820180604052508101906126ae91906141c9565b9050806126f0576040517f08c379a00000000000000000000000000000000000000000000000000000000081526004016126e79061423e565b60405180910390fd5b5f7f000000000000000000000000000000000000000000000000000000000000000073ffffffffffffffffffffffffffffffffffffffff1663a9059cbb33896040518363ffffffff1660e01b815260040161274c929190614501565b6020604051808303815f875af1158015612768573d5f5f3e3d5ffd5b505050506040513d601f19601f8201168201806040525081019061278c91906141c9565b9050806127ce576040517f08c379a00000000000000000000000000000000000000000000000000000000081526004016127c5906142a6565b60405180910390fd5b3373ffffffffffffffffffffffffffffffffffffffff167fbd5034ffbd47e4e72a94baa2cdb74c6fad73cb3bcdc13036b72ec8306f5a7646898987604051612818939291906143fc565b60405180910390a250505050505061282e6130f0565b919050565b5f60015f8473ffffffffffffffffffffffffffffffffffffffff1673ffffffffffffffffffffffffffffffffffffffff1681526020019081526020015f205f8373ffffffffffffffffffffffffffffffffffffffff1673ffffffffffffffffffffffffffffffffffffffff1681526020019081526020015f2054905092915050565b5f5f5f6108706110ea54116128cd576110ea546128d1565b6108705b9050808410612915576040517f08c379a000000000000000000000000000000000000000000000000000000000815260040161290c90614808565b60405180910390fd5b5f6110e954851161293657846110e95461292f9190613d9e565b9050612955565b6110e954856129459190613d9e565b6108706129529190613d9e565b90505b5f600982610870811061296b5761296a613dd1565b5b600202016040518060400160405290815f82015481526020016001820154815250509050805f0151816020015194509450505050915091565b6301e1338081565b600560019054906101000a900473ffffffffffffffffffffffffffffffffffffffff1673ffffffffffffffffffffffffffffffffffffffff163373ffffffffffffffffffffffffffffffffffffffff1614612a3c576040517f08c379a0000000000000000000000000000000000000000000000000000000008152600401612a3390613f08565b60405180910390fd5b5f73ffffffffffffffffffffffffffffffffffffffff168173ffffffffffffffffffffffffffffffffffffffff1603612aaa576040517f08c379a0000000000000000000000000000000000000000000000000000000008152600401612aa190614870565b60405180910390fd5b5f60075f9054906101000a900473ffffffffffffffffffffffffffffffffffffffff1690508160075f6101000a81548173ffffffffffffffffffffffffffffffffffffffff021916908373ffffffffffffffffffffffffffffffffffffffff1602179055508173ffffffffffffffffffffffffffffffffffffffff168173ffffffffffffffffffffffffffffffffffffffff167faaebcf1bfa00580e41d966056b48521fa9f202645c86d4ddf28113e617c1b1d360405160405180910390a35050565b5f612b7661300e565b60085f3373ffffffffffffffffffffffffffffffffffffffff1673ffffffffffffffffffffffffffffffffffffffff1681526020019081526020015f205f9054906101000a900460ff16612bff576040517f08c379a0000000000000000000000000000000000000000000000000000000008152600401612bf6906148d8565b60405180910390fd5b5f8211612c41576040517f08c379a0000000000000000000000000000000000000000000000000000000008152600401612c389061414c565b60405180910390fd5b5f7f000000000000000000000000000000000000000000000000000000000000000073ffffffffffffffffffffffffffffffffffffffff166323b872dd3330866040518463ffffffff1660e01b8152600401612c9f9392919061416a565b6020604051808303815f875af1158015612cbb573d5f5f3e3d5ffd5b505050506040513d601f19601f82011682018060405250810190612cdf91906141c9565b905080612d21576040517f08c379a0000000000000000000000000000000000000000000000000000000008152600401612d18906142a6565b60405180910390fd5b3373ffffffffffffffffffffffffffffffffffffffff167f2acaf92365a0b69fb3570802396f62d51aabccd684036b72c3ce78699425e7ee84604051612d67919061392f565b60405180910390a2612d7761310a565b6001915050612d846130f0565b919050565b600560019054906101000a900473ffffffffffffffffffffffffffffffffffffffff1681565b5f33905090565b612dc38383836001613285565b505050565b5f612dd38484612833565b90507fffffffffffffffffffffffffffffffffffffffffffffffffffffffffffffffff811015612e555781811015612e46578281836040517ffb8f41b2000000000000000000000000000000000000000000000000000000008152600401612e3d939291906148f6565b60405180910390fd5b612e5484848484035f613285565b5b50505050565b5f73ffffffffffffffffffffffffffffffffffffffff168373ffffffffffffffffffffffffffffffffffffffff1603612ecb575f6040517f96c6fd1e000000000000000000000000000000000000000000000000000000008152600401612ec29190613a06565b60405180910390fd5b5f73ffffffffffffffffffffffffffffffffffffffff168273ffffffffffffffffffffffffffffffffffffffff1603612f3b575f6040517fec442f05000000000000000000000000000000000000000000000000000000008152600401612f329190613a06565b60405180910390fd5b612f46838383613454565b505050565b612f5361366d565b5f60055f6101000a81548160ff0219169083151502179055507f5db9ee0a495bf2e6ff9c91a7834c1ba4fdd244a5e8aa4e537bd38aeae4b073aa612f95612daf565b604051612fa29190613a06565b60405180910390a1565b612fb4613030565b600160055f6101000a81548160ff0219169083151502179055507f62e78cea01bee320cd4e420270b5ea74000d11b0c9f74754ebdbfc544b05a258612ff7612daf565b6040516130049190613a06565b60405180910390a1565b6130166136ad565b60026130286130236136ee565b613717565b5f0181905550565b613038611179565b1561306f576040517fd93c066500000000000000000000000000000000000000000000000000000000815260040160405180910390fd5b565b5f73ffffffffffffffffffffffffffffffffffffffff168273ffffffffffffffffffffffffffffffffffffffff16036130e1575f6040517fec442f050000000000000000000000000000000000000000000000000000000081526004016130d89190613a06565b60405180910390fd5b6130ec5f8383613454565b5050565b60016131026130fd6136ee565b613717565b5f0181905550565b601e6110eb5461311a9190613dfe565b421015801561312f57505f61312d610971565b115b15613204575f61313d610fc2565b905061087060016110e9546131529190613dfe565b61315c9190613e5e565b6110e98190555060405180604001604052808281526020014281525060096110e95461087081106131905761318f613dd1565b5b600202015f820151815f0155602082015181600101559050506110ea5f8154809291906131bc9061492b565b9190505550426110eb819055507fe6f2c82c8be6ae89f9e7ddae85f285421f42458c3d8498b4d88d318352fca73381426040516131fa929190613908565b60405180910390a1505b565b5f73ffffffffffffffffffffffffffffffffffffffff168273ffffffffffffffffffffffffffffffffffffffff1603613276575f6040517f96c6fd1e00000000000000000000000000000000000000000000000000000000815260040161326d9190613a06565b60405180910390fd5b613281825f83613454565b5050565b5f73ffffffffffffffffffffffffffffffffffffffff168473ffffffffffffffffffffffffffffffffffffffff16036132f5575f6040517fe602df050000000000000000000000000000000000000000000000000000000081526004016132ec9190613a06565b60405180910390fd5b5f73ffffffffffffffffffffffffffffffffffffffff168373ffffffffffffffffffffffffffffffffffffffff1603613365575f6040517f94280d6200000000000000000000000000000000000000000000000000000000815260040161335c9190613a06565b60405180910390fd5b8160015f8673ffffffffffffffffffffffffffffffffffffffff1673ffffffffffffffffffffffffffffffffffffffff1681526020019081526020015f205f8573ffffffffffffffffffffffffffffffffffffffff1673ffffffffffffffffffffffffffffffffffffffff1681526020019081526020015f2081905550801561344e578273ffffffffffffffffffffffffffffffffffffffff168473ffffffffffffffffffffffffffffffffffffffff167f8c5be1e5ebec7d5bd14f71427d1e84f3dd0314c0f7b2291e5b200ac8c7c3b92584604051613445919061392f565b60405180910390a35b50505050565b5f73ffffffffffffffffffffffffffffffffffffffff168373ffffffffffffffffffffffffffffffffffffffff16036134a4578060025f8282546134989190613dfe565b92505081905550613572565b5f5f5f8573ffffffffffffffffffffffffffffffffffffffff1673ffffffffffffffffffffffffffffffffffffffff1681526020019081526020015f205490508181101561352d578381836040517fe450d38c000000000000000000000000000000000000000000000000000000008152600401613524939291906148f6565b60405180910390fd5b8181035f5f8673ffffffffffffffffffffffffffffffffffffffff1673ffffffffffffffffffffffffffffffffffffffff1681526020019081526020015f2081905550505b5f73ffffffffffffffffffffffffffffffffffffffff168273ffffffffffffffffffffffffffffffffffffffff16036135b9578060025f8282540392505081905550613603565b805f5f8473ffffffffffffffffffffffffffffffffffffffff1673ffffffffffffffffffffffffffffffffffffffff1681526020019081526020015f205f82825401925050819055505b8173ffffffffffffffffffffffffffffffffffffffff168373ffffffffffffffffffffffffffffffffffffffff167fddf252ad1be2c89b69c2b068fc378daa952ba7f163c4a11628f55a4df523b3ef83604051613660919061392f565b60405180910390a3505050565b613675611179565b6136ab576040517f8dfc202b00000000000000000000000000000000000000000000000000000000815260040160405180910390fd5b565b6136b5613720565b156136ec576040517f3ee5aeb500000000000000000000000000000000000000000000000000000000815260040160405180910390fd5b565b5f7f9b779b17422d0df92223018b32b4d1fa46e071723d6817e2486d003becc55f005f1b905090565b5f819050919050565b5f600261373361372e6136ee565b613717565b5f015414905090565b5f81519050919050565b5f82825260208201905092915050565b8281835e5f83830152505050565b5f601f19601f8301169050919050565b5f61377e8261373c565b6137888185613746565b9350613798818560208601613756565b6137a181613764565b840191505092915050565b5f6020820190508181035f8301526137c48184613774565b905092915050565b5f5ffd5b5f73ffffffffffffffffffffffffffffffffffffffff82169050919050565b5f6137f9826137d0565b9050919050565b613809816137ef565b8114613813575f5ffd5b50565b5f8135905061382481613800565b92915050565b5f819050919050565b61383c8161382a565b8114613846575f5ffd5b50565b5f8135905061385781613833565b92915050565b5f5f60408385031215613873576138726137cc565b5b5f61388085828601613816565b925050602061389185828601613849565b9150509250929050565b5f8115159050919050565b6138af8161389b565b82525050565b5f6020820190506138c85f8301846138a6565b92915050565b5f602082840312156138e3576138e26137cc565b5b5f6138f084828501613849565b91505092915050565b6139028161382a565b82525050565b5f60408201905061391b5f8301856138f9565b61392860208301846138f9565b9392505050565b5f6020820190506139425f8301846138f9565b92915050565b5f5f5f6060848603121561395f5761395e6137cc565b5b5f61396c86828701613816565b935050602061397d86828701613816565b925050604061398e86828701613849565b9150509250925092565b5f602082840312156139ad576139ac6137cc565b5b5f6139ba84828501613816565b91505092915050565b5f60ff82169050919050565b6139d8816139c3565b82525050565b5f6020820190506139f15f8301846139cf565b92915050565b613a00816137ef565b82525050565b5f602082019050613a195f8301846139f7565b92915050565b5f819050919050565b5f613a42613a3d613a38846137d0565b613a1f565b6137d0565b9050919050565b5f613a5382613a28565b9050919050565b5f613a6482613a49565b9050919050565b613a7481613a5a565b82525050565b5f602082019050613a8d5f830184613a6b565b92915050565b5f613a9d826137ef565b9050919050565b613aad81613a93565b8114613ab7575f5ffd5b50565b5f81359050613ac881613aa4565b92915050565b5f5f5f60608486031215613ae557613ae46137cc565b5b5f613af286828701613aba565b9350506020613b0386828701613816565b9250506040613b1486828701613849565b9150509250925092565b5f5f60408385031215613b3457613b336137cc565b5b5f613b4185828601613816565b9250506020613b5285828601613816565b9150509250929050565b7f4e487b71000000000000000000000000000000000000000000000000000000005f52602260045260245ffd5b5f6002820490506001821680613ba057607f821691505b602082108103613bb357613bb2613b5c565b5b50919050565b5f81519050613bc781613833565b92915050565b5f60208284031215613be257613be16137cc565b5b5f613bef84828501613bb9565b91505092915050565b7f474c5553443a20696e76616c69642064617973000000000000000000000000005f82015250565b5f613c2c601383613746565b9150613c3782613bf8565b602082019050919050565b5f6020820190508181035f830152613c5981613c20565b9050919050565b7f474c5553443a206d6178203930206461797300000000000000000000000000005f82015250565b5f613c94601283613746565b9150613c9f82613c60565b602082019050919050565b5f6020820190508181035f830152613cc181613c88565b9050919050565b7f474c5553443a206e6f20686973746f72790000000000000000000000000000005f82015250565b5f613cfc601183613746565b9150613d0782613cc8565b602082019050919050565b5f6020820190508181035f830152613d2981613cf0565b9050919050565b7f4e487b71000000000000000000000000000000000000000000000000000000005f52601160045260245ffd5b5f613d678261382a565b9150613d728361382a565b9250828202613d808161382a565b91508282048414831517613d9757613d96613d30565b5b5092915050565b5f613da88261382a565b9150613db38361382a565b9250828203905081811115613dcb57613dca613d30565b5b92915050565b7f4e487b71000000000000000000000000000000000000000000000000000000005f52603260045260245ffd5b5f613e088261382a565b9150613e138361382a565b9250828201905080821115613e2b57613e2a613d30565b5b92915050565b7f4e487b71000000000000000000000000000000000000000000000000000000005f52601260045260245ffd5b5f613e688261382a565b9150613e738361382a565b925082613e8357613e82613e31565b5b828206905092915050565b5f613e988261382a565b9150613ea38361382a565b925082613eb357613eb2613e31565b5b828204905092915050565b7f474c5553443a206f6e6c792061646d696e0000000000000000000000000000005f82015250565b5f613ef2601183613746565b9150613efd82613ebe565b602082019050919050565b5f6020820190508181035f830152613f1f81613ee6565b9050919050565b7f474c5553443a207a65726f2070617573657220616464726573730000000000005f82015250565b5f613f5a601a83613746565b9150613f6582613f26565b602082019050919050565b5f6020820190508181035f830152613f8781613f4e565b9050919050565b7f474c5553443a206f6e6c792070617573657200000000000000000000000000005f82015250565b5f613fc2601283613746565b9150613fcd82613f8e565b602082019050919050565b5f6020820190508181035f830152613fef81613fb6565b9050919050565b7f474c5553443a207a65726f2061646d696e2061646472657373000000000000005f82015250565b5f61402a601983613746565b915061403582613ff6565b602082019050919050565b5f6020820190508181035f8301526140578161401e565b9050919050565b5f819050919050565b5f61408161407c6140778461405e565b613a1f565b61382a565b9050919050565b61409181614067565b82525050565b5f6020820190506140aa5f830184614088565b92915050565b5f819050919050565b5f6140d36140ce6140c9846140b0565b613a1f565b61382a565b9050919050565b6140e3816140b9565b82525050565b5f6020820190506140fc5f8301846140da565b92915050565b7f474c5553443a207a65726f20616d6f756e7400000000000000000000000000005f82015250565b5f614136601283613746565b915061414182614102565b602082019050919050565b5f6020820190508181035f8301526141638161412a565b9050919050565b5f60608201905061417d5f8301866139f7565b61418a60208301856139f7565b61419760408301846138f9565b949350505050565b6141a88161389b565b81146141b2575f5ffd5b50565b5f815190506141c38161419f565b92915050565b5f602082840312156141de576141dd6137cc565b5b5f6141eb848285016141b5565b91505092915050565b7f474c5553443a20666565207472616e73666572206661696c65640000000000005f82015250565b5f614228601a83613746565b9150614233826141f4565b602082019050919050565b5f6020820190508181035f8301526142558161421c565b9050919050565b7f474c5553443a2055534443207472616e73666572206661696c656400000000005f82015250565b5f614290601b83613746565b915061429b8261425c565b602082019050919050565b5f6020820190508181035f8301526142bd81614284565b9050919050565b7f474c5553443a20696e76616c69642065786368616e67652072617465000000005f82015250565b5f6142f8601c83613746565b9150614303826142c4565b602082019050919050565b5f6020820190508181035f830152614325816142ec565b9050919050565b7f474c5553443a206d696e7420616d6f756e7420746f6f20736d616c6c000000005f82015250565b5f614360601c83613746565b915061436b8261432c565b602082019050919050565b5f6020820190508181035f83015261438d81614354565b9050919050565b7f474c5553443a2065786365656473206d617820737570706c79206361700000005f82015250565b5f6143c8601d83613746565b91506143d382614394565b602082019050919050565b5f6020820190508181035f8301526143f5816143bc565b9050919050565b5f60608201905061440f5f8301866138f9565b61441c60208301856138f9565b61442960408301846138f9565b949350505050565b7f474c5553443a2063616e6e6f74207265736375652055534443000000000000005f82015250565b5f614465601983613746565b915061447082614431565b602082019050919050565b5f6020820190508181035f83015261449281614459565b9050919050565b7f474c5553443a207a65726f2061646472657373000000000000000000000000005f82015250565b5f6144cd601383613746565b91506144d882614499565b602082019050919050565b5f6020820190508181035f8301526144fa816144c1565b9050919050565b5f6040820190506145145f8301856139f7565b61452160208301846138f9565b9392505050565b7f474c5553443a20726573637565207472616e73666572206661696c65640000005f82015250565b5f61455c601d83613746565b915061456782614528565b602082019050919050565b5f6020820190508181035f83015261458981614550565b9050919050565b7f474c5553443a206e6f74206120747265617375727900000000000000000000005f82015250565b5f6145c4601583613746565b91506145cf82614590565b602082019050919050565b5f6020820190508181035f8301526145f1816145b8565b9050919050565b7f474c5553443a206e6f20737570706c79000000000000000000000000000000005f82015250565b5f61462c601083613746565b9150614637826145f8565b602082019050919050565b5f6020820190508181035f83015261465981614620565b9050919050565b7f474c5553443a20696e73756666696369656e742062616c616e636500000000005f82015250565b5f614694601b83613746565b915061469f82614660565b602082019050919050565b5f6020820190508181035f8301526146c181614688565b9050919050565b7f474c5553443a2072656465656d20616d6f756e7420746f6f20736d616c6c00005f82015250565b5f6146fc601e83613746565b9150614707826146c8565b602082019050919050565b5f6020820190508181035f830152614729816146f0565b9050919050565b7f474c5553443a20696e73756666696369656e74205553444320726573657276655f8201527f7300000000000000000000000000000000000000000000000000000000000000602082015250565b5f61478a602183613746565b915061479582614730565b604082019050919050565b5f6020820190508181035f8301526147b78161477e565b9050919050565b7f474c5553443a20736e617073686f7420746f6f206f6c640000000000000000005f82015250565b5f6147f2601783613746565b91506147fd826147be565b602082019050919050565b5f6020820190508181035f83015261481f816147e6565b9050919050565b7f474c5553443a207a65726f20726563697069656e7400000000000000000000005f82015250565b5f61485a601583613746565b915061486582614826565b602082019050919050565b5f6020820190508181035f8301526148878161484e565b9050919050565b7f474c5553443a206f6e6c792074726561737572790000000000000000000000005f82015250565b5f6148c2601483613746565b91506148cd8261488e565b602082019050919050565b5f6020820190508181035f8301526148ef816148b6565b9050919050565b5f6060820190506149095f8301866139f7565b61491660208301856138f9565b61492360408301846138f9565b949350505050565b5f6149358261382a565b91507fffffffffffffffffffffffffffffffffffffffffffffffffffffffffffffffff820361496757614966613d30565b5b60018201905091905056fea26469706673582212200fb2aa4b83e1cc007fe9ccd266d5addefb1d92928dbc8a3de095c92ca1ea6efb64736f6c634300081e0033","linkReferences":{}},"methodIdentifiers":{"BP_SCALE()":"d8b4cf4e","FEE_BP()":"af831768","MAX_SNAPSHOTS()":"31ad24f8","MAX_TOTAL_SUPPLY()":"33039d3d","MIN_SNAPSHOT_INTERVAL()":"ad381c71","SECONDS_PER_YEAR()":"e6a69ab8","USDC()":"89a30271","addTreasury(address)":"c8cb3834","admin()":"f851a440","allowance(address,address)":"dd62ed3e","approve(address,uint256)":"095ea7b3","balanceOf(address)":"70a08231","calculateAPR(uint256)":"d1a02a86","calculateAPY(uint256)":"2b70fc58","decimals()":"313ce567","depositFees(uint256)":"ebdac090","exchangeRate()":"3ba0b9a9","feeRecipient()":"46904840","getCurrentAPRs()":"984b4a3d","getMostRecentSnapshot()":"841283ae","getSnapshotCount()":"bcbcf148","getSnapshotFromPast(uint256)":"e51a3b01","isTreasury(address)":"516f0a1b","lastSnapshotTime()":"be74baf2","mint(uint256)":"a0712d68","name()":"06fdde03","pause()":"8456cb59","paused()":"5c975abb","pauser()":"9fd0506d","recentSnapshots(uint256)":"1617a218","redeem(uint256)":"db006a75","remainingMintableSupply()":"349f0b90","removeTreasury(address)":"b35ee931","rescueERC20(address,address,uint256)":"b2118a8d","setAdmin(address)":"704b6c02","setFeeRecipient(address)":"e74b981b","setPauser(address)":"2d88af4a","snapshotIndex()":"234feaf2","symbol()":"95d89b41","takeSnapshot()":"b3d3d37e","totalSnapshotCount()":"9bbaca57","totalSupply()":"18160ddd","transfer(address,uint256)":"a9059cbb","transferFrom(address,address,uint256)":"23b872dd","unpause()":"3f4ba83a","vaultStatus()":"24a8166e"},"id":8}